:020000040800F2
:1000000000500020A9350008411D0008451D0008CA
:10001000491D00084D1D0008511D0008000000008A
:10002000000000000000000000000000551D000856
:10003000591D0008000000005D1D0008611D00083A
:10004000F1350008F1350008F1350008F1350008F8
:10005000F1350008F1350008F1350008F1350008E8
:10006000F1350008F1350008F1350008F1350008D8
:10007000F1350008F1350008F1350008F1350008C8
:10008000F1350008F1350008F1350008F1350008B8
:10009000F1350008F1350008F1350008F1350008A8
:1000A000F1350008F1350008F1350008F135000898
:1000B000F1350008F1350008F1350008F135000888
:1000C000F1350008F1350008F1350008F135000878
:1000D000F1350008F13500085D0B0008F135000826
:1000E000F1350008F1350008F13500080000000086
:1000F0000000000000000000000000000000000000
:0C01000000000000000000005FF808F1A3
:10010C0080F0004002E000BF81F0004142001FBFC0
:10011C005FEA410392EA030F7FEA226C7FEA236CC9
:10012C006AD04FEA1262D2EB1363C1BFD2184140BE
:10013C0048404140B8BF5B42192B88BF704710F054
:10014C00004F40F4000020F07F4018BF404211F0F7
:10015C00004F41F4000121F07F4118BF494292EA5F
:10016C00030F3FD0A2F1010241FA03FC10EB0C008B
:10017C00C3F1200301FA03F100F0004302D5494218
:10018C0060EB4000B0F5000F13D3B0F1807F06D3C5
:10019C0040084FEA310102F10102FE2A51D2B1F1BD
:1001AC00004F40EBC25008BF20F0010040EA0300B2
:1001BC007047490040EB0000013A28BFB0F5000F32
:1001CC00EDD2B0FA80FCACF1080CB2EB0C0200FAE8
:1001DC000CF0AABF00EBC25052421843BCBFD04037
:1001EC001843704792F0000F81F4000106BF80F4B1
:1001FC0000000132013BB5E74FEA41037FEA226C74
:10020C0018BF7FEA236C21D092EA030F04D092F03E
:10021C00000F08BF0846704790EA010F1CBF002072
:10022C00704712F07F4F04D1400028BF40F00040CF
:10023C00704712F100723CBF00F50000704700F0EF
:10024C00004343F0FE4040F4000070477FEA226216
:10025C0016BF08467FEA23630146420206BF5FEAE7
:10026C00412390EA010F40F4800070474FF00003E7
:10027C0004E000BF10F0004348BF40425FEA000CAE
:10028C0008BF704743F0964301464FF000001CE056
:10029C0050EA010208BF70474FF000030AE000BFAC
:1002AC0050EA010208BF704711F0004302D54042EA
:1002BC0061EB41015FEA010C02BF8446014600205C
:1002CC0043F0B64308BFA3F18053A3F50003BCFA77
:1002DC008CF2083AA3EBC25310DB01FA02FC634424
:1002EC0000FA02FCC2F12002BCF1004F20FA02F22B
:1002FC0043EB020008BF20F00100704702F120021E
:10030C0001FA02FCC2F1200250EA4C0021FA02F27E
:10031C0043EB020008BF20EADC7070474FF0FF0C83
:10032C001CEAD0521EBF1CEAD15392EA0C0F93EA7E
:10033C000C0F6FD01A4480EA010C400218BF5FEA20
:10034C0041211ED04FF0006343EA501043EA511193
:10035C00A0FB01310CF00040B1F5000F3EBF49008D
:10036C0041EAD3715B0040EA010062F17F02FD2A91
:10037C001DD8B3F1004F40EBC25008BF20F0010074
:10038C00704790F0000F0CF0004C08BF49024CEA8B
:10039C00502040EA51207F3AC2BFD2F1FF0340EA1D
:1003AC00C250704740F400004FF00003013A5DDC8E
:1003BC0012F1190FDCBF00F000407047C2F10002CF
:1003CC00410021FA02F1C2F1200200FA02FC5FEABC
:1003DC00310040F1000053EA4C0308BF20EADC7006
:1003EC00704792F0000F00F0004C02BF400010F478
:1003FC00000F013AF9D040EA0C0093F0000F01F025
:10040C00004C02BF490011F4000F013BF9D041EA46
:10041C000C018FE70CEAD15392EA0C0F18BF93EA48
:10042C000C0F0AD030F0004C18BF31F0004CD8D172
:10043C0080EA010000F00040704790F0000F17BFF9
:10044C0090F0004F084691F0000F91F0004F14D03F
:10045C0092EA0C0F01D142020FD193EA0C0F03D197
:10046C004B0218BF084608D180EA010000F000409A
:10047C0040F0FE4040F40000704740F0FE4040F475
:10048C00400070474FF0FF0C1CEAD0521EBF1CEA14
:10049C00D15392EA0C0F93EA0C0F69D0A2EB030232
:1004AC0080EA010C49024FEA402037D04FF08053CC
:1004BC0043EA111143EA10130CF000408B4238BF91
:1004CC005B0042F17D024FF4000C8B4224BF5B1A9F
:1004DC0040EA0C00B3EB510F24BFA3EB510340EAED
:1004EC005C00B3EB910F24BFA3EB910340EA9C009B
:1004FC00B3EBD10F24BFA3EBD10340EADC001B010B
:10050C0018BF5FEA1C1CE0D1FD2A3FF650AF8B42AE
:10051C0040EBC25008BF20F0010070470CF0004CBB
:10052C004CEA50207F32C2BFD2F1FF0340EAC250E6
:10053C00704740F400004FF00003013A37E792F0A7
:10054C00000F00F0004C02BF400010F4000F013A05
:10055C00F9D040EA0C0093F0000F01F0004C02BF00
:10056C00490011F4000F013BF9D041EA0C0195E769
:10057C000CEAD15392EA0C0F08D142027FF47DAF02
:10058C0093EA0C0F7FF470AF084676E793EA0C0FF2
:10059C0004D14B023FF44CAF08466EE730F0004CF0
:1005AC0018BF31F0004CCAD130F000427FF45CAF80
:1005BC0031F000437FF43CAF5FE700BF4FF0FF3CEE
:1005CC0006E000BF4FF0010C02E000BF4FF0010C41
:1005DC004DF804CD4FEA40024FEA41037FEA226C0A
:1005EC0018BF7FEA236C11D001B052EA530C18BF2C
:1005FC0090EA010F58BFB2EB030088BFC81738BF91
:10060C006FEAE17018BF40F0010070477FEA226C7E
:10061C0002D15FEA402C05D17FEA236CE4D15FEA7A
:10062C00412CE1D05DF8040B704700BF84460846AE
:10063C006146FFE70FB5FFF7C9FF002848BF10F16F
:10064C00000F0FBD4DF808EDFFF7F4FF0CBF0120B4
:10065C0000205DF808FB00BF4DF808EDFFF7EAFF3E
:10066C0034BF012000205DF808FB00BF4DF808EDF9
:10067C00FFF7E0FF94BF012000205DF808FB00BFEE
:10068C004DF808EDFFF7D2FF94BF012000205DF874
:10069C0008FB00BF4DF808EDFFF7C8FF34BF012081
:1006AC0000205DF808FB00BF4FEA4002B2F1FE4F9C
:1006BC000FD34FF09E03B3EB12620DD94FEA002318
:1006CC0043F0004310F0004F23FA02F018BF4042F1
:1006DC0070474FF00000704712F1610F01D14202D8
:1006EC0005D110F0004008BF6FF0004070474FF08C
:1006FC000000704742000ED2B2F1FE4F0BD34FF008
:10070C009E03B3EB126209D44FEA002343F000437B
:10071C0023FA02F070474FF00000704712F1610F9E
:10072C0001D1420202D14FF0FF3070474FF0000070
:10073C00704700BF2DE9F047012182B0152002F06F
:10074C00E9FA302244F603033148002601A9ADF83A
:10075C0004208146ADF8063002F000FB4FF48043D4
:10076C00DFF8B0A03446504601A9ADF8043002F0D1
:10077C00F5FA4FF4005301345046DFF89C8001A980
:10078C00E4B2ADF8043002F0E9FA032C45463746E2
:10079C0014D0042C1DD0022C32D02021484602F05B
:1007AC003FFBB0FA80F040096F7028700134E4B25E
:1007BC00032C06F1010605F10205EAD14FF4804144
:1007CC00504602F02DFBB0FA80F0400928706F7093
:1007DC00ECE74FF400510F4802F022FB0023B0FA73
:1007EC0080F00E4A08EB460113700D4A4009137055
:1007FC000C4A4B70137008F8160002B0BDE8F08775
:10080C001021484602F00CFBB0FA80F04009DDE7FD
:10081C000008014000100140900000208A000020D8
:10082C0089000020880000202DE9F04F02214FF0B4
:10083C00010B03220423DFF8F09083B0DFF8EC8087
:10084C003B4F3C4E0DF1050A02AD09EB0B048DF844
:10085C0004B08DF805108DF806208DF807300BF1DB
:10086C00FF33032B0CD8DFE803F0243B1B024FF4BF
:10087C000051384602F0D4FAB0FA80F04009F0B9D1
:10088C0014F8013C012B35D00023AA4504F8013C97
:10089C0009F1020904F102041FD01AF801BBDEE7CA
:1008AC004FF48041384602F0BBFAB0FA80F04009B0
:1008BC00E5E72021304602F0B3FA0028E0D114F825
:1008CC00013C7BBB0123AA4589F8013004F10204E9
:1008DC0004F8033C09F10209DFD103B0BDE8F08F45
:1008EC001021304602F09CFA0028E8D014F8013CA4
:1008FC00012BC9D199F80130012BC5D1002398F8EF
:10090C00002089F80130032ABED80B4901320B486C
:10091C0088F800200A7800F802B0013202F00302D5
:10092C000A70B2E70123B0E7900000208800002095
:10093C0000100140000801408A0000208C000020BB
:10094C00084A107860B110B40749084C0B7801388C
:10095C001070E018013303F003030B7010BC7047E8
:10096C00704700BF88000020890000208C00002008
:10097C00F0B5C02640F2034500244FF6FF7785B052
:10098C0001210D2002F0C6F90121062002F0CEF95A
:10099C0069462748ADF80060ADF8025002F0DEF968
:1009AC00ADF80060234E6946ADF802502248234D45
:1009BC0002F0D4F9304601A9ADF80440ADF8087046
:1009CC00ADF80A40ADF8064002F038FC284601A903
:1009DC00ADF80870ADF80440ADF80A40ADF806402B
:1009EC0002F02CFC234622463046032102F01EFD69
:1009FC003046012102F04EFD2146304602F03EFD0C
:100A0C003046012102F0F4FC2346224628460321FD
:100A1C0002F00CFD2846012102F03CFD214628463F
:100A2C0002F02CFD0121284602F0E2FC05B0F0BDDD
:100A3C000008014000040040000C01400008004088
:100A4C0070B5114802F022FD034610495B420A883A
:100A5C009BB20F4C9A1A0F4822800B8002F016FDA5
:100A6C000D4D0E49B4F90020D5F800C00B880C4C84
:100A7C0062442A60C31A22681BB20A4E1A442260CE
:100A8C003380088070BD00BF000800409800002033
:100A9C00A4000020000400409C0000209A000020CC
:100AAC00A0000020A6000020012170B504460D46D0
:100ABC0086B0002C4FF0050008BF4FF4E13402F073
:100ACC0029F929464FF4003002F030F9042641F69A
:100ADC00030369461C48ADF80230ADF8006002F023
:100AEC003DF9082369461848ADF800308DF80360CD
:100AFC0002F034F902A802F049FB00234FF4402223
:100B0C0002A91248CDE90332ADF81430029402F078
:100B1C00E1FA2A4640F225510C4802F04FFB022321
:100B2C0026220DEB06008DF805308DF804208DF88B
:100B3C0006308DF8075002F097FA2946034802F068
:100B4C002FFB06B070BD00BF000801400044004000
:100B5C0010B540F225510E4802F04EFB00B910BD05
:100B6C0000220C4B0A481A8002F042FB0A490B4A3D
:100B7C000B881288013303F07F0392B29A42EED0B5
:100B8C000A88074C92B2C0B2A0540B8010BD00BFB3
:100B9C0000440040DE010020280100202A01002032
:100BAC00A8000020072A00D97047024B53F82220D6
:100BBC0000F016BB743F000870B5012182B00D2007
:100BCC0002F0A8F80121154802F03AF941F20303AA
:100BDC004FF484724FF40046114C124D204601A97B
:100BEC00ADF80630ADF8042002F0B8F8284601A99B
:100BFC00ADF8046002F0B2F8204601224FF4807187
:100C0C0002F018F920460122082102F013F9012202
:100C1C003146284602F00EF902B070BD00023000D9
:100C2C00000C014000080140013808B506284DD8D9
:100C3C00DFE800F0172A323A4244040000224FF455
:100C4C008071234802F0F6F800220821204802F0B7
:100C5C00F1F8BDE8084000224FF400411D4802F0B5
:100C6C00E9B800224FF48071194802F0E3F8012230
:100C7C000821174802F0DEF8BDE8084001224FF4C5
:100C8C000041144802F0D6B801224FF4807110488C
:100C9C0002F0D0F80022EBE701224FF480710C48EF
:100CAC0002F0C8F80122D0E700224FF48071084806
:100CBC0002F0C0F80022DBE70122C0E700224FF46B
:100CCC008071034802F0B6F80122BEE70122C9E7A1
:100CDC00000C01400008014070B5012182B00920D0
:100CEC0002F018F80121114802F0AAF8102541F27F
:100CFC00034320260E4C01A92046ADF80630ADF872
:100D0C00045002F02BF8204601A9ADF8046002F063
:100D1C0025F831462046012202F08CF801222946A2
:100D2C00204602F087F802B070BD00BF0002300010
:100D3C00000C014010B50B4C01222046102102F092
:100D4C0079F820460122202102F074F82046002276
:100D5C00102102F06FF82046BDE81040002220213F
:100D6C0002F068B8000C014070B5002480260546DE
:100D7C0046FA04F32B4214BF0122002210210E4824
:100D8C0002F058F8012220210B4802F053F80134EC
:100D9C0000222021084802F04DF8082CE8D101224D
:100DAC002021054802F046F8BDE8704000222021C1
:100DBC00014802F03FB800BF000C014038B50546B1
:100DCC00FFF7B8FF7820FFF7CFFF0C4C0020FFF7A0
:100DDC00CBFF2846FFF7C8FF20460022102102F067
:100DEC0029F820460122202102F024F82046BDE8F3
:100DFC0038400122102102F01DB800BF000C014048
:100E0C0070B50026174D66F04F00C0B2FFF7D6FF45
:100E1C001020FFF7D3FF0020FFF7D0FF8024FFF74F
:100E2C0089FF7820FFF7A0FF4020FFF79DFF0020EF
:100E3C00FFF79AFF00221021284601F0FBFF012248
:100E4C002021284601F0F6FF01221021284601F04E
:100E5C00F1FF631E13F0FF04E1D10136082ED2D14D
:100E6C0070BD00BF000C01402DE9F04F01F1FF38BF
:100E7C00471E4FEAC8085FFA88F87F00FBB24FEABA
:100E8C00181A83B043F0B0004AF0100A14460193CC
:100E9C0008F00808FFF792FF5046FFF78FFF404617
:100EAC00FFF78CFF2E4D203C05F108092D4E09EB68
:100EBC0004194FEA041B05EB041414F8017BFFF72B
:100ECC0039FF7820FFF750FF4020FFF74DFF3846E1
:100EDC00FFF74AFF00221021304601F0ABFF012240
:100EEC002021304601F0A6FF01221021304601F0EE
:100EFC00A1FF4C45E1D101981A4C013060F04F0034
:100F0C00C0B2FFF75BFF5046FFF758FF4046FFF7B4
:100F1C0055FF154B0BF1070215449B4415F8016F57
:100F2C00FFF708FF7820FFF71FFF4020FFF71CFF9B
:100F3C003046FFF719FF00221021204601F07AFFFE
:100F4C0001222021204601F075FF012210212046AC
:100F5C0001F070FF5D45E1D103B0BDE8F08F00BF3B
:100F6C0094400008000C0140A3400008F8B5154659
:100F7C00127862B106460F46002439190134304606
:100F8C00C9B2E4B2FFF770FF2A5D002AF5D1F8BDB3
:100F9C0073B32DE9F843814616461C465F1EDFF8F5
:100FAC00548027F0FF075D18291B012CC9B2A4F14E
:100FBC0002021BD00123013A03EB8303501C4FEABE
:100FCC004303F8D1B6FBF3F3A8FB0302D20802EB00
:100FDC008202A3EB420303F130024846013CD2B239
:100FEC00FFF742FFBC42DFD1BDE8F8833346EBE7A5
:100FFC00704700BFCDCCCCCC2DE9F8431F46141E56
:10100C00AEBF2B222D2264420D460646FFF72CFF65
:10101C005FB3B946DFF85C80013F09F1010327F0AB
:10102C00FF071D44A5EB0901B9F1010FC9B2A9F1E4
:10103C0002021CD00123013A03EB8303501C4FEA3C
:10104C004303F8D1B4FBF3F3A8FB0302D20802EB81
:10105C008202A3EB420303F13002304609F1FF395F
:10106C00D2B2FFF701FFB945DCD1BDE8F8832346C6
:10107C00EAE700BFCDCCCCCC63B32DE9F041804680
:10108C000C4616461D465F18FFB2012DA5F1020352
:10109C001ED04FF0010C013B5A1C4FEA0C1CFAD12C
:1010AC00B6FBFCFC0CF00F0CBCF1090F214604F153
:1010BC00010494BF0CF130020CF137024046E4B24B
:1010CC00FFF7D2FEA74205F1FF35DED1BDE8F08176
:1010DC00B446E7E7704700BF08B5FFF7FDFDAE204B
:1010EC00FFF76CFED520FFF769FE8020FFF766FE48
:1010FC00A820FFF763FE3F20FFF760FED320FFF729
:10110C005DFE0020FFF75AFE4020FFF757FEA1209E
:10111C00FFF754FEC820FFF751FEDA20FFF74EFE12
:10112C001220FFF74BFE8120FFF748FECF20FFF780
:10113C0045FED920FFF742FEF120FFF73FFEDB20F2
:10114C00FFF73CFE3020FFF739FEA420FFF736FEF8
:10115C00A620FFF733FE8D20FFF730FE1420FFF79B
:10116C002DFEAF20FFF72AFEBDE80840FFF748BE72
:10117C00F8B5461E7600F6B2B71C184DFFB246F015
:10118C00B000FFF71BFE1020FFF718FE0020FFF742
:10119C0015FE8024FFF7CEFD7820FFF7E5FD4020FB
:1011AC00FFF7E2FD0020FFF7DFFD002210212846AB
:1011BC0001F040FE01222021284601F03BFE0122D5
:1011CC001021284601F036FE631E13F0FF04E1D116
:1011DC000136F6B2BE42D2D1F8BD00BF000C0140C0
:1011EC002DE9F04F01384C1E4000E4005FFA80F806
:1011FC00E4B208F1010904F1100A83B069F04F0957
:10120C005FFA8AF32E4D5FFA89F948F0B008571C43
:10121C000193260946F010064046FFF7CFFD04F077
:10122C000F0B3046FFF7CAFD5846FFF7C7FD17F8FE
:10123C0001ACFFF77FFD7820FFF796FD4020FFF70C
:10124C0093FD5046FFF790FD00221021284601F037
:10125C00F1FD01222021284601F0ECFD0122102194
:10126C00284601F0E7FD4846FFF7A8FD3046FFF79A
:10127C00A5FD5846FFF7A2FD17F8026BFFF75AFDC4
:10128C007820FFF771FD4020FFF76EFD3046FFF729
:10129C006BFD00221021284601F0CCFD01222021FB
:1012AC00284601F0C7FD01221021284601F0C2FD9D
:1012BC000134019BE4B29C42ABD103B0BDE8F08F8A
:1012CC00000C014070B5002601250F4B04461E7022
:1012DC0001F0C6F84FF47A720C4B1D700C4B1A804F
:1012EC0001F014F83146022001F04CF83146284642
:1012FC0001F048F82146022001F018F82146284652
:10130C00BDE8704001F012B830010020D50100207A
:10131C00D60100202DE9F84FFFF74EFCFFF7DCFE5D
:10132C0000F0D0FB00F0DCFE4FF0E02207210020A3
:10133C00F024554B554D1B68DFF85491A5FB035316
:10134C005B09013B5361534BDFF84CA183F82340FD
:10135C009061524C116100F04DFF00F03DFFFFF722
:10136C0007FB00F0ABF800F0DBFAFFF7E3F94FF402
:10137C00E130FFF799FB01F0E3FA01F04BF800F0D4
:10138C0075FD2378DFF81881464F474E474D23BB38
:10139C00FFF74AFAFFF7D4FA8346388C80B2FEF78F
:1013AC0065FF2946FEF7BAFF3060BBF1000F0FD086
:1013BC009BF80030013B032B0AD8DFE803F03E31E9
:1013CC0049020520FFF730FC4FF47A60FFF77AFFF3
:1013DC0000F04EFD2378002BDAD00023237000F0B0
:1013EC001FFB99F80030002BD2D151462D4800F04C
:1013FC00CBF89AF800B0BBF1000F31D02C49DAF8D9
:10140C000400FEF78BFFFFF74FF92A4AD8F800309B
:10141C00108013B1013BC8F8003001F0E5FAB7E7D2
:10142C000220FFF701FC01F01BF800F0C9FF00F0EF
:10143C0075FF0023C8F80030CAE70120FFF7F4FB62
:10144C0000F064FF01231C4A137000F0F3FFBFE7A8
:10145C000420FFF7E9FB4FF4FA60FFF733FFB7E71F
:10146C00D8F800300133B3F5FA7F02D8C8F8003051
:10147C00D3E74FF4FA73C8F8003000F04FFF0E4B6F
:10148C0083F800B0C9E700BF20000020D34D6210E4
:10149C00D501002000ED00E038010020D40100202F
:1014AC0034010020800100202C01002025C28B3B40
:1014BC0000002041D80100203001002030B4184B2E
:1014CC00184A194C1949C3E9004204F18274783462
:1014DC00C3E902415962A1F1A5719A62596102F105
:1014EC0002723239C3E90612114C02F5F01201F501
:1014FC00520132311A6202F18C72C3E90C12DC62B5
:10150C000C4A0D4C0820C3E90E424FF082420B4DA1
:10151C000B491D610B4B08701A6030BC704700BF43
:10152C0040010020C800A406C8007805C800340893
:10153C00C800E006E600FE06DC000609C800D0077D
:10154C0000000020040000200F2816D838B50C4BE2
:10155C000D4603EB800233F820405088001BFEF749
:10156C0089FE0849FEF7DAFEFFF7C4F8204480B282
:10157C00A84234BF0020012038BD0020704700BFB6
:10158C0040010020CDCC4C3E2DE9F04F05460F46D6
:10159C0093B0002800F0EF80002900F0F880AC4CEC
:1015AC004FF000080DF1080B04F1400623E0FEF7A4
:1015BC0061FE0246A9EB0A009246FEF75BFE01466D
:1015CC005046FEF75FFF00218246FFF745F84FF0CB
:1015DC007E51D0B95046FFF75DF8002800F08181AC
:1015EC004FF07E53CBF800300434B44205F10205C1
:1015FC000BF1040B12D0B4F800A02888B4F80290B8
:10160C0080B2CA45A0EB0A00D1D30434B442CBF863
:10161C00008005F102050BF1040BECD100244FF016
:10162C007E5925460DF1040858F8046F494630469A
:10163C00FFF712F8E3B2013408B11D46B146102C85
:10164C00F2D1002405F1010A4FF0000826465FFA9A
:10165C008AFA05F1FF3B0CE09A4507D0404652F858
:10166C00401CFEF753FD80460136F6B20134102CB7
:10167C000CD012AB03EB8402E3B29D42F6D0002DEA
:10168C00EAD05C45F2D00E2DE8D8E5E7002E66D006
:10169C003046FEF7EBFD01464046FEF7F3FE6D4982
:1016AC000446FEF7D9FF002859D121464846FEF7DB
:1016BC00E9FE6949FEF7EEFF002850D12046674944
:1016CC00FEF7D4FF00284AD12846FEF7CFFD04468A
:1016DC00002D62D005F1FF3B12AB03EB8B0353F8EB
:1016EC00401C12AB03EB85030E2D53F8406C40F2FB
:1016FC00C1804FF07E50FEF707FD0146FEF70EFE4F
:10170C005749FEF703FD314682464FF07E50FEF7F7
:10171C00FBFC0146FEF702FE5149FEF7F7FC0646BC
:10172C0050463146FEF7F2FC0021FEF7EFFC4D4926
:10173C008046FEF7AFFF00287ED120464A49FEF7CF
:10174C00A9FF00B1484C01232046484A7D70157012
:10175C00474A7C6014603B7013B0BDE8F08F44497D
:10176C0000230C68414A204612787C607A703B70EA
:10177C0013B0BDE8F08F51B13D4A387014683B4B43
:10178C0020461B784C604B7013B0BDE8F08F384B83
:10179C001C68204613B0BDE8F08F02994FF07E50C4
:1017AC00FEF7B2FC0146FEF7B9FD2D49FEF7AEFC83
:1017BC00039906464FF07E50FEF7A6FC0146FEF755
:1017CC00ADFD2749FEF7A2FC814600213046FEF70D
:1017DC009DFC4946FEF79AFC22498046FEF75AFFCB
:1017EC000028AAD021464FF0000A681C0191FEF790
:1017FC0041FD834601995046FEF790FD0346314664
:10180C0020461C46FEF78AFD01462046FEF77EFC6C
:10181C00494604465846FEF781FD01462046FEF730
:10182C0075FC4146FEF72EFE00210446FEF714FF20
:10183C00002882D0002486E74FF000095846FEF7B6
:10184C0019FD0E2D014688BFA346D4D8CDE700BFA5
:10185C0040010020BD3786359A99993E3333333F8A
:10186C000AD7233C6F12833A00007041000000201D
:10187C00040000204FF07E50FEF746FC0146FEF7B8
:10188C004DFD1949FEF742FC314682464FF07E5021
:10189C00FEF73AFC0146FEF741FD1349FEF736FC14
:1018AC006B1C12AADBB202EB830353F8401C0646F6
:1018BC004FF07E50FEF728FC0146FEF72FFD0A493B
:1018CC00FEF724FC814631465046FEF71FFC494684
:1018DC00FEF71CFC05498046FEF7DCFE0028ADD166
:1018EC002BE7CBF800A07FE60AD7233C6F12833A94
:1018FC00012208B511460948052301F05DFB0121C1
:10190C00064801F04FFB0221044801F0A7FB002818
:10191C00F9D0BDE80840014801F09CBB002401400F
:10192C0070B5012186B040F20D2001F0F3F94FF4AF
:10193C00004001F09DF940F2074641F2030369466D
:10194C001E48ADF80230ADF8006001F007FA3146E0
:10195C001A4801F06DFA0024032369461848ADF8C3
:10196C0000308DF8034001F0F9F9164801F0A0FAA7
:10197C0001254FF46023134801A903930194ADF89A
:10198C00084004948DF8145001F0C8FA0D4829460B
:10199C0001F0EAFA0B4801F0F1FA0A4801F0F4FA06
:1019AC000028FAD1074801F0F3FA064C204601F062
:1019BC00F5FA0028FAD106B070BD00BF000C01404A
:1019CC00000801400024014038B504460F2C28BF04
:1019DC000F24124D04F0010228464FF4806101F0EF
:1019EC0029FA2846C4F34002042101F023FA2846C0
:1019FC00C4F38002022101F01DFAE20801212846FD
:101A0C0001F018FA032001F0D3F8FFF771FF022060
:101A1C0001F0CEF8BDE83840FFF76ABF000C01407A
:101A2C0038B500240F4DE0B2FFF7CEFF25F81400B7
:101A3C000134102CF7D10523012200210A4801F0B2
:101A4C00BBFA0121084801F0ADFA074C02212046EF
:101A5C0001F004FB0028F9D0034801F0FBFA2884BC
:101A6C0038BD00BF800100200024014070B5054640
:101A7C000E4612484FF4805101F0DAF9104C05F083
:101A8C007F0523899807FCD5ADB20D4AA581138932
:101A9C00D907FCD593890A4803899A07FCD5B6B2B5
:101AAC00074A86811389DB07FCD5BDE870404FF4EB
:101ABC0080519389014801F0B9B900BF000C014075
:101ACC000038004010B5012186B0092001F022F940
:101ADC0001214FF4804001F029F94FF4805441F278
:101AEC00030369464848ADF80230ADF8004001F0F8
:101AFC0035F92146444801F099F94FF4204241F65A
:101B0C00030369464048ADF80020ADF8023001F0FF
:101B1C0025F94FF48042042369463B48ADF8002078
:101B2C008DF8033001F01AF901A801F087F84FF491
:101B3C0000724FF4827000234FF0100CADF80E20A1
:101B4C00072201A9ADF806003048ADF810C0ADF879
:101B5C000430ADF80830ADF80A30ADF80C30ADF803
:101B6C001230ADF8142001F03FF80121274801F0A4
:101B7C0071F80A2001F028F82146234801F058F9A1
:101B8C0022490B899807FCD58F23204A8B81138916
:101B9C00D907FCD593891D490B899A07FCD5FF23DE
:101BAC001A4A8B811389DB07FCD594894FF4805139
:101BBC00A4B21548E4B201F039F96B2C02D0002024
:101BCC0006B010BD20211020FFF750FF382118203F
:101BDC00FFF74CFF50211520FFF748FF80211620FE
:101BEC00FFF744FF03210E20FFF740FF582111207F
:101BFC00FFF73CFF38211920FFF738FF0A2000F0CF
:101C0C00E3FF012006B010BD000C0140003800407D
:101C1C0010B54FF48051044684B01C4801F008F90B
:101C2C001B490B899807FCD5A223194A8B81138970
:101C3C00D907FCD5FF209389154B0DF1100C01A988
:101C4C001A899207FCD598811A89D207FCD59A89F2
:101C5C0001F8012B6145F3D14FF480510B4801F091
:101C6C00E5F8BDF80420BDF80630BDF80800BDF855
:101C7C000A10E2802381BDF80C20BDF80E30608183
:101C8C0021806280A38004B010BD00BF000C014015
:101C9C0000380040002843D010B50446B0F90000CD
:101CAC00FEF7E8FA4FF06251FEF738FB0346B4F941
:101CBC000200E360FEF7DEFA4FF06251FEF72EFBF6
:101CCC000346B4F904002361FEF7D4FA4FF06251D5
:101CDC00FEF724FB0346B4F906006361FEF7CAFA6B
:101CEC001049FEF711FA1049FEF7CCFB0346B4F984
:101CFC000800A361FEF7BEFA0C49FEF707FA0A4981
:101D0C00FEF7C0FB0346B4F90A00E361FEF7B2FA32
:101D1C000749FEF7FBF90449FEF7B4FB206210BD3E
:101D2C00704700BF4C376140BCA04C44E17A404145
:101D3C00B81E4D40704700BFFEE700BFFEE700BF76
:101D4C00FEE700BFFEE700BF704700BF704700BF53
:101D5C00704700BFF8B53948394DFFF759FF374880
:101D6C00FFF798FF2B7843B9364C03F0FF06238816
:101D7C0001339BB2FA2B238045D8304B3249186A79
:101D8C00FEF7CCFA0446314F21463868FEF7BEF90F
:101D9C0003462F4E20462F493B60FEF7BFFA3168B1
:101DAC00FEF7B4F92C490446FEF76AFCF0B1204664
:101DBC002949FEF7A9F93060284C4FF07E51206874
:101DCC00FEF7A4F92B78206053B1254B1A8892B2F8
:101DDC001AB11A88013A92B21A801C88A4B2E4B1E2
:101DEC00FEF72EFE01221F4B1A70F8BD2046002173
:101DFC00FEF732FC08B93460DEE720461649FEF7E0
:101E0C0085F93060D8E7304600F0CAF9FA23164A53
:101E1C002380167000F082FAAFE720462C7000F099
:101E2C00BFF9114B1C7000F0CBFA00F077FAFEF7FB
:101E3C0007FE01220B4B1A70F8BD00BFA401002055
:101E4C00D5010020DE0100206F12033BC8010020E9
:101E5C00CC010020E12E65420000B443D0010020EB
:101E6C00D6010020D401002030010020704700BFB3
:101E7C002DE9F04F8B4B8BB01868FEF73BFC81467D
:101E8C00894A8A4BB2F90080B3F90030884A9844E9
:101E9C00884B1FFA89F9B3F90030B9F5B47F28BF24
:101EAC004FF000099045B8BF9046029342F20F7371
:101EBC00814D984528688149A8BF9846FEF72EFAAF
:101ECC004FF07C51FEF722F9FEF7EEFB8346022021
:101EDC0000F090FA0446012000F08CFA4FF0640AEE
:101EEC0027187F080AFB07F7754B2D68A3FB0737EC
:101EFC00C7F3473757452846724928BF57462BEA40
:101F0C00EB7BFEF7B3FB002840F0C58028466E49FA
:101F1C00FEF7B6FB002840F0C1806A492846FEF760
:101F2C00F3F86649FEF7FAF96849FEF7ABFAFEF7E3
:101F3C00E1FBC3B203934FF0000A01265446644DF3
:101F4C0035F81A105FFA8AF089B2FFF7FDFA06FA33
:101F5C000AF222430AF1010A00B194B2BAF1100F4D
:101F6C00EED10120FFF704F9012100220846FEF70B
:101F7C0019FE3A2203210120FEF776FF0523029A6F
:101F8C0004210120FFF738F801220A211046FEF740
:101F9C0009FE3A220C210120FEF766FF4A460D216C
:101FAC0003230120FEF7F4FF64224A4B04A8A3FB91
:101FBC000B135B0902FB13B208210092464A01F095
:101FCC0037FB0220FFF7D4F8022201211046FEF75E
:101FDC00E9FD032102203A22FEF746FF04AA042160
:101FEC000220FEF7C3FF03220A210220FEF7DAFDCE
:101FFC003A220C210220FEF737FF042322460D2142
:10200C000220FFF739F80320FFF7B2F80422012170
:10201C000320FEF7C7FD03213A220846FEF724FFF2
:10202C000423424619460320FEF7E6FF0522092148
:10203C000320FEF7B7FD3A220B210320FEF714FF15
:10204C003B460821254A06A801F0F2FA06AA0C2103
:10205C000320FEF78BFF0420FFF78AF806220121EC
:10206C000420FEF79FFD072203210420FEF79AFDB2
:10207C003A2205210420FEF7F7FE039B0821174A9C
:10208C0008A801F0D5FA0621042008AAFEF76EFF75
:10209C000BB0BDE8F08F002303934CE7CDF80CA0F8
:1020AC0049E700BFCC010020A4000020A6000020BE
:1020BC00F1D8FFFFD80100202C0100200000C842FD
:1020CC005917B7D10000B0409A990941686646404B
:1020DC00800100201F85EB518446000890460008C3
:1020EC0030B5012189B0092000F014FE01210D4604
:1020FC00084600F01BFE2946264800F0A1FE4FF4CE
:10210C00006241F60303694623480024ADF8002021
:10211C00ADF8023000F022FE41F28A0301A94FF023
:10212C008040ADF80830ADF80440ADF80A40ADF889
:10213C0006408DF80C4001F081F8602240F6450312
:10214C0004A94FF08040ADF81020ADF81630ADF872
:10215C001250ADF81440ADF81840ADF81A40ADF877
:10216C001C40ADF81E4001F007F929464FF08040A5
:10217C0001F04CF929464FF0804001F039F94FF04D
:10218C008040064B21461C80838D01F07BF909B001
:10219C0030BD00BF00021800000C014008000020F8
:1021AC00B0F57A7F014628BF4FF47A714FF0804327
:1021BC0010B4074C184621809B8D064A9BB203FB3A
:1021CC000111A2FB013110BCC1F38F1101F05AB9FE
:1021DC0008000020D34D621008B501214FF080405B
:1021EC0001F006F9BDE8084001214FF0804001F0F4
:1021FC000DB900BF2DE9F0414FF4805841F20305B1
:10220C0088B03E4E0121052000F084FD01214FF4E1
:10221C00006000F07FFD69463046ADF80250ADF825
:10222C00008000F09BFD4FF4A06369463046ADF88A
:10223C000250ADF8003000F091FD41F603024FF46E
:10224C002063694630460024ADF80220ADF800301A
:10225C0000F084FD41F28A03294D01A9284601278B
:10226C00ADF80830ADF80440ADF80A40ADF80640C2
:10227C008DF80C4000F0E2FF6023284604A9ADF86D
:10228C001030ADF81440ADF81640ADF81840ADF86C
:10229C001A40ADF81C40ADF81E40ADF8127001F0BC
:1022AC0023F8284604A9ADF8164001F065F8394624
:1022BC00284601F0ABF83946284601F099F830462B
:1022CC004FF4807100F0B2FD30464FF4806100F0A5
:1022DC00AFFD4146304600F0ABFD0A4B2146284687
:1022EC00AA8D1C8001F0CCF8074B21462846AA8DFC
:1022FC001C8001F0C7F808B0BDE8F081000801406F
:10230C00002C0140DA010020DC0100204FF4805148
:10231C00014800F08BBD00BF000801404FF4805114
:10232C00014800F085BD00BF0008014042F2107268
:10233C008A4228BF0A4684460E4810B4838D0E4C40
:10234C009BB203FB0223A4FB0313BCF1010FC3F3E9
:10235C004F3104D0BCF1020F06D010BC7047074BB4
:10236C0010BC1A8001F08CB8054B10BC1A8001F01F
:10237C0089B800BF002C01405917B7D1DA010020F1
:10238C00DC010020012808D0022805D181B14FF4CE
:10239C0080610A4800F04ABD704721B94FF4807142
:1023AC00064800F043BD4FF48071044800F040BD76
:1023BC004FF48061014800F03BBD00BF00080140B4
:1023CC0038B50024084D094B28462146AA8D1C809F
:1023DC0001F056F8064BAA8D214628461C80BDE814
:1023EC00384001F04FB800BF002C0140DA0100204A
:1023FC00DC010020012806D0022802D1034B1888EA
:10240C00704700207047024B18887047DC01002091
:10241C00DA01002000220021054B9960D960196176
:10242C0099611A705A805A601A759A83704700BF66
:10243C00E0010020002200210120074BDFF81CC026
:10244C009961C3F808C0D96019619A8318705A80D1
:10245C005A601A75704700BFE001002000007A43F3
:10246C0000220021014B99601A707047E001002096
:10247C0010B50844FDF7FEFE064C4FF07C51FDF7FD
:10248C004DFF0549FDF7FEFFE168FDF73FFEE060FB
:10249C0010BD00BFE00100200000C0402DE9F04F4E
:1024AC00A24D83B095F80080B8F1000F00F0828047
:1024BC00B8F10A0F7ED06B88D5F80CA001332969CE
:1024CC0050466B80FDF720FE8146994B994AB3F933
:1024DC0000B09949137858460C1F01F11C06009363
:1024EC00CDF80490FDF7C6FE009B211D914A41F8E2
:1024FC002300013303F0070313702746002318460B
:10250C0057F8041FFDF702FEBE420346F7D14FF009
:10251C007851FDF703FF4FF000090746394654F890
:10252C00040FFDF7F1FD0146FDF7F8FE01464846A4
:10253C00FDF7ECFDA6428146F0D14FF07851FDF746
:10254C00EDFE7E490446A861FEF7A4F87C4B061EFE
:10255C001B7818BF012683B3EB880BB1013BEB80D2
:10256C00AB88B3F57A7F3ED32B7D23B9BBF1320F09
:10257C0033DD01232B7508F1FF38B8F1080F18D89B
:10258C00DFE818F04A00090059007C0089009E0021
:10259C00B000C200340001986A49FEF77BF840B1E4
:1025AC00002303226849C5F810A0A9606B802A702B
:1025BC006B772E7703B0BDE8F08FEB88B3F57A7F9D
:1025CC0002D201339BB2EB80AA880AB1013AAA80ED
:1025DC001E2B84BF01236B77C6E71BF1320FBCBFE8
:1025EC0002232B75C7E70133AB80BDE70198574930
:1025FC00FEF750F828B950465549FEF74BF800281D
:10260C00D7D000230A220021C5F810A0A9606B8046
:10261C002A706B772E77CDE7AB88092B40F20481BB
:10262C00002302224B49C5F810A0A9606B802A70C8
:10263C006B772E77BEE750464749FEF72BF80028FC
:10264C0000F0988050464549FEF706F8002800F047
:10265C00918020463949FEF71DF8002800F08A8049
:10266C002B7F002B40F0868004226B806B773C4BD9
:10267C00C5F810A0AB602A702E779BE76B7F13B167
:10268C00AB88092B8CD801983649FEF703F8002843
:10269C0086D12E778EE720462849FDF7FBFF0028D0
:1026AC0040F09A80AB88092B40F296800323264A8F
:1026BC006880C5F810A06877AA602B702E7779E730
:1026CC00AB88092B05D920461C49FDF7E3FF0028F0
:1026DC00ECD001982449FDF7DDFF00287FF460AFB2
:1026EC002E7767E720490198FDF7D4FF18B1AB8826
:1026FC00092B3FF655AF01981949FDF7CBFF002880
:10270C007FF44EAF2E7755E750461849FDF7C2FFC0
:10271C0000283FF44EAF002309221549C5F810A03C
:10272C00A9606B802A706B772E7743E7E00100205D
:10273C00D801002000020020040200200000FA440E
:10274C00380100200000A0410000AF43000070429F
:10275C0000804A440000C8430000A04200000C4323
:10276C00000048430000C8420000F04200803B4497
:10277C000000964350463149FDF78CFFA0B1304F15
:10278C0050463946FDF768FF70B120462D49FDF7DC
:10279C0081FF48B100230522AF60C5F810A02A7054
:1027AC006B806B772E7705E750462549FDF772FF56
:1027BC00D8B150462449FDF74FFFB0B1EB881E2B22
:1027CC0013D9002306222149C5F810A0A9606B80FB
:1027DC002A706B772E77EDE601981849FDF75AFFB2
:1027EC0000287FF4DDAE2E77E4E650461849FDF75D
:1027FC0051FF38B150461749FDF72EFF10B1002399
:10280C000722E0E750461449FDF744FF00283FF447
:10281C00D0AE002308220949C5F810A0A9606B802E
:10282C002A706B772E77C5E601980C49FDF732FFBD
:10283C0000287FF4B5AE2E77BCE600BF000016432F
:10284C0000007A430000FA440000A543000048430E
:10285C000000AF430000D743000016440000F041D5
:10286C00014B9868704700BFE00100202DE9F84348
:10287C000446002859D00846216AFDF745FC21681A
:10288C000546FDF74BFDA16A80462846FDF73EFC48
:10289C00A669A06231460746FDF7FCFE00283BD036
:1028AC00A66230466168FDF739FD616A81462846AB
:1028BC00FDF72AFCA168FDF731FD1E4B0746196A8E
:1028CC00E068FDF72BFD1C490646FDF7D9FE08BB59
:1028DC0030461A49FDF7CAFE00B1184E494640462B
:1028EC00FDF714FC3946FDF711FC3146FDF70CFCE5
:1028FC000646276931463846FDF7AEFE30B96769A2
:10290C0031463846FDF7C6FE00B937463846656293
:10291C00BDE8F883084EE1E7E66938463146FDF735
:10292C009BFE0028BCD13E46BBE700273846BDE8DD
:10293C00F88300BFA401002000C05A4500C05AC54E
:10294C000021194A1948DFF868C050601948C2F8CC
:10295C0000C0D060DFF860C01848C2F808C05061F1
:10296C00DFF85CC01748184BC2F810C09061D161F9
:10297C0011625162154ADFF858C09A60154A164820
:10298C001A61164AC3F800C09A614FF08242DFF810
:10299C0050C0D86013485960C3F814C0D8611A628B
:1029AC0059629962704700BF540200203333A34030
:1029BC000000B0400000FA459A99B94000007A45F1
:1029CC000000FAC500007AC52802002000800E45E0
:1029DC000000464300A00C460000AF4400A08C450C
:1029EC0000A00CC600A08CC52DE9F843674E684DBD
:1029FC00B6F90000B5F90010FFF73AFDFFF74EFDF0
:102A0C00644BB3F90000FDF735FC6349FDF73AFD63
:102A1C0001466248FFF72AFFB6F900700446B5F983
:102A2C000060FFF71DFF5E4B1A78002A50D0DFF8CC
:102A3C0074810146D8F8009005464846FDF70CFE17
:102A4C00594B00287FD10122C8F800501A70384623
:102A5C00FDF710FC07463046FDF70CFC01463846E6
:102A6C00FDF754FB4FF07C51FDF758FC014628460E
:102A7C00FDF74AFB4D4E0746F169FDF745FB316802
:102A8C008046FDF74BFC716805463846FDF746FC61
:102A9C0001462846FDF73AFBB16805464046FDF76E
:102AAC003DFC01462846FDF731FB316AFDF72EFB54
:102ABC00F56880462946FDF7EDFD30B9356940468D
:102ACC002946FDF7C9FD00285CD0F761356209E0A5
:102ADC000023364933481D4603600B62CB614B62C1
:102AEC00314B1A7021462846FDF70EFB0346214652
:102AFC0028461D46FDF70AFBFDF7D6FD00B200285F
:102B0C0037DB002184B20220FFF73CFC42F210714B
:102B1C00A14228BF21460220FFF708FC2846FDF7FA
:102B2C00C3FD00B200281BDB002184B20120FFF79B
:102B3C0029FC42F21071A14228BF2146BDE8F8439E
:102B4C000120FFF7F3BB1A78002A7FF47CAF4846CC
:102B5C004FF08041FDF7DAFA0546C8F8000076E739
:102B6C00FDF788FB00F10040FDF7C4FD012184B2A4
:102B7C00DCE7FDF77FFB00F10040FDF7BBFD012119
:102B8C0084B2C0E74546F7613562ABE7A40000208C
:102B9C00A6000020D80100200000204128020020BF
:102BAC00300100207C02002024020020540200206E
:102BBC00431E38B100BF00BF00BF00BF00BF00BF45
:102BCC00013BF7D2704700BF421E60B14FF47A73DD
:102BDC0000BF00BF00BF00BF00BF00BF013BF7D16B
:102BEC00013AF3D270477047B1F802C00B888A885B
:102BFC0043EA0C03B1F806C013430A8943EA0C03F9
:102C0C0000B5B1F80AE0B1F80CC0134343EA0E0367
:102C1C00028843EA0C03B1F80EC002F4415243EAB5
:102C2C000C0313439BB20380838B0A8A23F4006347
:102C3C001B041B0C838302825DF804FB0023072218
:102C4C00038043808380C380038143818381C3815C
:102C5C0002827047038821B19BB243F0400303808A
:102C6C00704723F040031B041B0C0380704700BF0C
:102C7C00034A536823F4404303435360704700BF37
:102C8C00001002401E4A10B4536803F00C03082BCA
:102C9C0021D01C4A13460260194A1B4C5168C1F3DF
:102CAC000311615CCB4043605168C1F30221615C4C
:102CBC0023FA01F181605168C1F3C221645C1349AC
:102CCC00E340C360526810BCC2F381328A5CB3FB30
:102CDC00F2F30361704753685168C3F38343C9032C
:102CEC0003F1020307D55268920304D4054A02FB90
:102CFC0003F30360D0E7064A02FB03F30360CBE760
:102D0C000010024000127A00100000200C0000207D
:102D1C0000093D00044A936911B118439061704752
:102D2C0023EA00009061704700100240044AD36906
:102D3C0011B11843D061704723EA0000D06170478D
:102D4C0000100240044AD36811B11843D060704798
:102D5C0023EA0000D0607047001002402DE9F041DA
:102D6C0091F803C01CF0100F18BF8B7809880CF079
:102D7C000F0518BF1D43CBB21BB3002301264FF028
:102D8C000F08046802E00133082B19D006FA03F28D
:102D9C0032EA0107F7D14FEA830E08FA0EF724EA5C
:102DAC00070405FA0EFEBCF1280F4EEA040432D0DB
:102DBC00BCF1480F03F1010308BF0261082BE5D1F8
:102DCC000460FF2925D9002301264FF00F08446821
:102DDC0002E00133082B1BD003F1080206FA02F2C1
:102DEC0032EA0107F5D14FEA830E08FA0EF724EA0E
:102DFC00070405FA0EFEBCF1280F4EEA04040CD0B1
:102E0C00BCF1480F03F1010308BF0261082BE3D1A9
:102E1C004460BDE8F0814261B5E74261D9E700BF8B
:102E2C008368194214BF012000207047016170476C
:102E3C00416170470AB1016170474161704700BF41
:102E4C0000281A4B00F44012B4BFDB695B68B2F582
:102E5C00401F10B41FFA80FC1FD0C20214D50322ED
:102E6C00C0F30344A24023EA020343F0706321B190
:102E7C00420D12010CFA02F213430C4A002810BC4A
:102E8C00B4BFD36153607047420D12010CFA02F2C9
:102E9C0023EA020343F07063E9E7044C23F0706308
:102EAC00626822F070626260E1E700BF00000140DE
:102EBC0008B5174B984206D0164B98420FD0164BBC
:102ECC00984218D008BD01214FF40070FFF73AFF6B
:102EDC00BDE8084000214FF40070FFF733BF01211B
:102EEC004FF48060FFF72EFFBDE8084000214FF43F
:102EFC008060FFF727BF01214FF40040FFF722FF4E
:102F0C00BDE8084000214FF40040FFF71BBF00BF95
:102F1C000024014000280140003C0140436891F826
:102F2C0004C023F4702310B423F480730C6843EAB8
:102F3C000C232343436083680A4A91F805C01A4066
:102F4C00D1E902432343134343EA4C0383600A7CD5
:102F5C00C36A013A23F47003D2B243EA025310BCA1
:102F6C00C3627047FDF7F1FF836819B143F00103A9
:102F7C008360704723F0010383607047836843F0DC
:102F8C0008038360704700BF8068C0F3C0007047BF
:102F9C00836843F004038360704700BF8068C0F30C
:102FAC0080007047836819B143F4A00383607047B5
:102FBC0023F4A00383607047092910B52FD94FF073
:102FCC00070EA1F10A0CC4680CEB4C0C03FA0CF3C1
:102FDC000EFA0CFC24EA0C0C43EA0C03C360062A20
:102FEC004FF01F0C0CD8013A446B02EB820201FA31
:102FFC0002F30CFA02F224EA02021343436310BDFB
:10300C000C2A1AD8073A046B02EB820201FA02F37B
:10301C000CFA02F224EA02021343036310BD4FF0D0
:10302C00070C046901EB410E0CFA0EFC03FA0EF3CB
:10303C0024EA0C0423430361D1E70D3AC46A02EB82
:10304C00820201FA02F30CFA02F224EA020213439E
:10305C00C36210BDC06C80B2704700BF03681942D8
:10306C0014BF012000207047C37813B3174A30B542
:10307C00D1684FF0010EC9430F23827890F801C03C
:10308C000078C1F3022100F01F040EFA04F4CB40C7
:10309C00C1F1040E13400CFA0EFC0D4D43EA0C0367
:1030AC001B012A18DBB2400982F8003345F8204096
:1030BC0030BD0121037806485A0903F01F03203262
:1030CC0001FA03F340F82230704700BF00ED00E036
:1030DC0000E100E030B504460D46238ACA889BB255
:1030EC0023F4405313438A892382A389898823F4C8
:1030FC00B05323F00C031B041B0C0B43298987B022
:10310C000B43698901A80B439BB2A381A38A9BB291
:10311C0023F440731343A382FFF7B4FDDDE90332BC
:10312C00184919488C4208BF1346A28903EB830344
:10313C0012F4004F2A6803EB830314BF5200920071
:10314C00B3FBF2F36425A0FB0321490905FB113302
:10315C000A01A18909040AD41B013233A0FB031311
:10316C00C3F3431313439BB2238107B030BDDB0081
:10317C003233A0FB0313C3F3421313439BB22381DB
:10318C0007B030BD003801401F85EB5100234FF4D0
:10319C0016514FF44022C0E90013826083817047BE
:1031AC00838921B19BB243F400538381704723F48C
:1031BC0000531B041B0C8381704700BF012301F0DB
:1031CC001F0CC1F34211012903FA0CF30DD0022993
:1031DC000CBF103014301AB10268134303607047EF
:1031EC00026822EA0303036070470C30F3E700BF68
:1031FC008088C0F3080070470123C1F3421201F02C
:10320C001F0C012A03FA0CF313D0022A0CBF028AFA
:10321C00828A92B21340028892B243B10123090A06
:10322C0003FA01F10A4214BF1846002070471846F1
:10323C007047828992B21340EDE700BF274A03889A
:10324C0090429BB212D002F5006290420ED0B0F1C7
:10325C00804F0BD0A2F59832904207D002F58062D5
:10326C00904203D002F58062904203D14A8823F049
:10327C00700313431A4A904217D002F580629042B1
:10328C0013D0CA8823F440739BB21343B1F804C023
:10329C000380124B0A889842A0F82CC002850CD1EE
:1032AC000B7A038601238382704703808B88838586
:1032BC000B8803850123838270470A4B9842EFD019
:1032CC0003F540639842EBD003F580639842E7D056
:1032DC0003F580639842E3D0ECE700BF002C01407B
:1032EC000010004000340140038C30B523F0100373
:1032FC001B041B0C0384038CB1F808E0B0F804C069
:10330C004D88028B23F020031B044EEA050E1B0C88
:10331C0022F4E64243EA0E13164CB1F800E0120414
:10332C00120C42EA0E22A0421FFA8CFC9BB292B203
:10333C000AD004F50064A04206D0C988A0F804C0E5
:10334C0002830187038430BD4FF6BF744D8923F08F
:10335C00800343EA05131C40CD898B892CF4406C07
:10336C002B434CEA830C8B881FFA8CFC44EA031326
:10337C009BB2E2E7002C0140038C30B523F4805360
:10338C001B041B0C0384038CB1F808E0B0F804C0D8
:10339C004D88828B23F400531B044EEA050E1B0C44
:1033AC0022F4E64243EA0E33104CB1F800E012046A
:1033BC00120C42EA0E22A0421FFA8CFC9BB292B273
:1033CC000BD004F50064A04207D0C988A0F804C053
:1033DC008283A0F84010038430BD8C892CF4804C7F
:1033EC004CEA841C1FFA8CFCEFE700BF002C014058
:1033FC00038821B19BB243F001030380704723F093
:10340C0001031B041B0C0380704700BFB0F8443051
:10341C0039B16FEA43436FEA53439BB2A0F844308F
:10342C007047C3F30E03A0F84430704710B5B0F8E2
:10343C0008E0B0F818C02EF0070E4FEA0E4E4FEA17
:10344C001E4E4EEA0104B0F820E02CF4407C2CF027
:10345C00030C2EF022014FEA0C4C090442EA031231
:10346C004FEA1C4C090C4CF4807C11434CF0010CC1
:10347C0089B20481A0F818C0018410BD8184704702
:10348C0001877047A0F84010704700BF808C80B255
:10349C00704700BFC94389B20182704710B4002045
:1034AC004FF41F04394A3A4B116883B041F00101C3
:1034BC00116051680B405360136823F0847323F43C
:1034CC0080331360136823F480231360536823F450
:1034DC00FE035360946000900190136843F48033B2
:1034EC00136003E0009BB3F5A06F09D0136803F4DD
:1034FC0000330193009B01330093019B002BF1D00F
:10350C00224B1B6813F4003318BF01230193019B5A
:10351C00012B06D04FF000621E4B9A6003B010BC1A
:10352C0070471D4A194B116841F010011160116868
:10353C0021F003011160116841F0020111605A6819
:10354C005A605A685A605A6842F480625A605A68E3
:10355C0022F47C125A605A6842F4E8125A601A68D3
:10356C0042F080721A601A689201FCD55968074AB9
:10357C0021F003015960596841F002015960536808
:10358C0003F00C03082BFAD1C4E700BF0010024073
:10359C000000FFF800ED00E000200240002103E0F5
:1035AC000B4B5B58435004310A480B4B42189A4260
:1035BC00F6D30A4A02E0002342F8043B084B9A4235
:1035CC00F9D3FFF76BFF00F00FF8FDF7A3FE704780
:1035DC00D046000800000020880000208800002051
:1035EC0094020020FEE7000070B500260C4D0D4C37
:1035FC00641BA410A64209D101F060F800260A4D04
:10360C000A4C641BA410A64205D170BD55F8043BAE
:10361C0098470136EEE755F8043B98470136F2E738
:10362C00000000000000000000000000000000008E
:10363C000CB430B5174B0C1E1D689DB008DA8B23EB
:10364C004FF0FF302B601DB0BDE8304002B070472A
:10365C004FF40273ADF814300CBF234604F1FF3362
:10366C00049307934FF6FF7302900690ADF8163053
:10367C00284621AB209A02A9019300F069F8431C5B
:10368C00BCBF8B232B60002CDDD00022029B1A7058
:10369C00D9E700BF240000202DE9F0478E68824650
:1036AC009E420C4690461F4638D88A8912F4906F79
:1036BC0032D0256809690133A5EB010965694B44D2
:1036CC0005EB450505EBD5756D109D4238BF1D46C4
:1036DC00530531D5294600F06FFB064650B90C2333
:1036EC004FF0FF30CAF80030A38943F04003A381A8
:1036FC00BDE8F0874A46216900F0CEFAA38923F48D
:10370C00906343F08003A38126614E4426603E46BD
:10371C006561A5EB0905A560BE4200D93E4632465F
:10372C004146206800F0C6FAA36800209B1BA360EA
:10373C00236833442360DBE72A4600F0B1FB0646DE
:10374C000028E1D15046216900F0CEFAC7E700000D
:10375C002DE9F04F98468B8907461B060D461446FB
:10376C009DB00ED50B6963B9402100F025FB286094
:10377C00286120B90C233B604FF0FF30D1E040238F
:10378C006B610023099320238DF8293030234FF0EF
:10379C000109CDF80C80DFF8A4818DF82A3023467E
:1037AC009A4613F8012B0AB1252AF9D1BAEB040B6E
:1037BC000BD05B46224629463846FFF76DFF013099
:1037CC0000F0AA80099A5A4409929AF80030002B0A
:1037DC0000F0A28000234FF0FF32CDE905230AF15F
:1037EC00010A049307938DF853301A93544605221B
:1037FC0014F8011B514800F041FA049AD8B9D006CC
:10380C0044BF20238DF85330110744BF2B238DF870
:10381C0053309AF800302A2B15D0544600204FF024
:10382C000A0C079A214611F8013B303B092B4ED963
:10383C00B0B1079214E0A0EB080309FA03F31343A9
:10384C00A2460493D2E7039B191D1B680391002B1E
:10385C00BBBF5B4242F0020207930793B8BF0492CE
:10386C0023782E2B0CD163782A2B35D1039B023471
:10387C001A1D1B680392002BB8BF4FF0FF33059342
:10388C00DFF8BCA003225046217800F0F7F940B1D4
:10389C004023A0EB0A0003FA00F0049B013403431D
:1038AC00049314F8011B062226488DF8281000F00A
:1038BC00E5F9002838D0244B1BBB039B073323F0BE
:1038CC00070308330393099B3344099367E70C46BA
:1038DC0001200CFB0232A5E700234FF00A0C19461D
:1038EC0001340593204610F8012B303A092A03D9EC
:1038FC00002BC5D00591C3E7044601230CFB012125
:10390C00F0E703AB00932A463846104B04A9AFF3FB
:10391C000080421C0646D6D1AB895B063FF52CAF26
:10392C0009981DB0BDE8F08F03AB00932A463846CA
:10393C00064B04A900F07CF8EBE700BF95460008A5
:10394C009B4600089F46000800000000A5360008B2
:10395C002DE9F047164699468A680B69074693424B
:10396C00B8BF1346336091F843200C46DDF8208035
:10397C000AB1013333602368990642BF33680233BE
:10398C003360256815F0060506D104F1190AE368C1
:10399C0032689B1AAB4228DC94F84320131E226831
:1039AC0018BF012392062DD44946384604F1430230
:1039BC00C047013020D02368E56803F00603042BD0
:1039CC0018BF002532684FF00006A36808BFAD1A77
:1039DC00226908BF25EAE5759342C4BF9B1AED180E
:1039EC001A34B5421AD1002008E001235246494648
:1039FC003846C047013003D14FF0FF30BDE8F087A7
:103A0C000135C4E73020E11881F843005A1C94F8C2
:103A1C0045102244023382F84310C5E701232246A5
:103A2C0049463846C0470130E6D00136D9E7000098
:103A3C002DE9FF470F7E9146782F80460C469A461B
:103A4C000C9D01F1430207D8622F0AD8002F00F019
:103A5C00D980582F00F0A48004F1420584F84270FC
:103A6C003AE0A7F16303152BF6D801A151F823F026
:103A7C00D53A0008E93A0008653A0008653A0008AA
:103A8C00653A0008653A0008E93A0008653A00080A
:103A9C00653A0008653A0008653A0008F73B0008EB
:103AAC00193B0008D93B0008653A0008653A000844
:103ABC00193C0008653A0008193B0008653A0008F3
:103ACC00653A0008E13B00082B681A1D1B682A6048
:103ADC0004F1420584F842300123A4E020682968EF
:103AEC00060601F104030AD50E682B60002E03DADA
:103AFC002D23764284F843300A235E4819E00E6881
:103B0C0010F0400F2B6018BF36B2EFE72B6820681F
:103B1C00191D2960010601D51E6802E04606FBD579
:103B2C001E886F2F0CBF08230A235248002184F8EB
:103B3C0043106568002DA8BF2168A560A4BF21F0C3
:103B4C00040121600EB9002D4DD01546B6FBF3F1E2
:103B5C0003FB1167C75D05F8017D3746BB420E4676
:103B6C00F4D9082B0BD12368DE0708D523696168CB
:103B7C009942DEBF302305F8013C05F1FF35521B9D
:103B8C0022614B4621464046CDF800A003AAFFF720
:103B9C00DFFE01304CD14FF0FF3004B0BDE8F087B0
:103BAC00344881F845702968236851F8046B296002
:103BBC001D0614D5DF0744BF43F0200323601EB954
:103BCC00236823F0200323601023AFE7236843F01E
:103BDC00200323607823284884F84530E3E759060E
:103BEC0048BFB6B2E6E71546BBE72B682668181D3A
:103BFC006169286035061B6801D5196002E0700602
:103C0C00FBD51980002315462361BAE72B680021E8
:103C1C001A1D2A601D686268284600F02FF808B14A
:103C2C00401B606063682361002384F84330A8E77D
:103C3C002A46494640462369D0470130ABD0236819
:103C4C009B0713D4E068039B9842B8BF1846A4E7BF
:103C5C000123324649464046D04701309BD00135BE
:103C6C00E36803995B1AAB42F2DCEBE7002504F145
:103C7C001906F5E7A6460008B7460008034610B536
:103C8C00C9B202449342184601D1002003E00478E3
:103C9C0001338C42F6D110BD0A44914200F1FF333E
:103CAC0000D1704710B511F8014B914203F8014F48
:103CBC00F9D110BD884210B501EB020402D984423F
:103CCC00234607D8431EA14208D011F8012B03F854
:103CDC00012FF8E7014602448A4200D110BD13F8C7
:103CEC00014D02F8014DF7E738B50546002940D0E3
:103CFC0051F8043C0C1F002BB8BFE41800F010F96D
:103D0C001C4A136833B9636014602846BDE8384018
:103D1C0000F00CB9A34208D9206821188B4201BFCE
:103D2C0019685B6809182160EDE71A465B680BB1EE
:103D3C00A342FAD911685018A0420BD12068014453
:103D4C00501883421160E0D118685B68014411601F
:103D5C005360DAE702D90C232B60D6E720682118D0
:103D6C008B4201BF19685B6809182160636054605D
:103D7C00CBE738BD8002002070B50E4E0C46316882
:103D8C00054611B900F0BCF830602146284600F019
:103D9C00B7F8431C0AD0C41C24F00304A04207D07B
:103DAC00211A284600F0ACF8013001D14FF0FF3455
:103DBC00204670BD840200202DE9F041CD1C25F079
:103DCC00030508350C2D38BF0C25002D074601DBEB
:103DDC00A94205D90C2300263B603046BDE8F08192
:103DEC002E4E00F09DF833681C4634BB29463846ED
:103DFC00FFF7C2FF431C04464DD134682646002E03
:103E0C0040D123683146384604EB030800F078F8BB
:103E1C0080453AD1216803356D1A25F00305083524
:103E2C000C2D38BF0C2538462946FFF7A5FF01306D
:103E3C002BD023682B4423600EE02268521B1ED427
:103E4C000B2A16D96119A342256018BF5960636803
:103E5C0008BF316062514B60384604F10B0600F02C
:103E6C0065F826F00706231DF21AB6D09B1BA3504B
:103E7C00B3E76268A3420CBF32605A60ECE723469A
:103E8C006468B2E734467668B9E70C2338463B6081
:103E9C0000F04CF8A1E72560DEE700BF80020020AF
:103EAC002DE9F041804614460E4621B91146BDE875
:103EBC00F041FFF781BF2AB9FFF716FF25462846C8
:103ECC00BDE8F08100F038F88442074602D8B4EB24
:103EDC00500F12D821464046FFF76EFF05460028CA
:103EEC00EDD0BC422246314628BF3A46FFF7D4FEFD
:103EFC0031464046FFF7F8FEE1E73546DFE70000C4
:103F0C0038B50023054D044608462B6000F01EF81A
:103F1C00431C02D12B6803B1236038BD88020020FA
:103F2C00014800F011B800BF8C020020014800F0DD
:103F3C000CB800BF8C02002051F8043C181F002B59
:103F4C00BCBF0B58C018704770477047044A0549EE
:103F5C001368002B08BF0B461844106018467047B6
:103F6C00900200209802002054400008F43F000802
:103F7C0074400008D43F000834400008B43F0008E7
:103F8C00943F00081440000800000000E01F2009C6
:103F9C00200920092009F87F204920492049E04FB9
:103FAC000060001000000000000010101010F01F46
:103FBC001008106840304018F8074040404040401E
:103FCC00C03F000000000000000000410041302113
:103FDC006011000F0001F8010001007F60413041C9
:103FEC000041003100000000000000004070E00FB4
:103FFC00500A580A500AD07F500A704A504A404A18
:10400C00C03F000000000000000000408050F85F3E
:10401C00A852A852A852A87FA852A852A852F85F3A
:10402C008050004000000000000080409820B03F0D
:10403C0000601050504950455043F85F504550496E
:10404C00D053104000000000000000018001F07F00
:10405C0008002040A043205C2840304020782047B6
:10406C00A040204000000000000000400038F8078D
:10407C000880088108810881E8FF08810881089977
:10408C0008A10880000000000000000000000000F3
:10409C000000000000000000000000F8000000001C
:1040AC00000000333000000000100C06100C06005D
:1040BC00000000000000000040C07840C0784000C4
:1040CC00043F04043F040400007088FC0830000026
:1040DC00001820FF211E0000F008F000E01800007E
:1040EC0000211C031E211E0000F008887000000037
:1040FC001E2123241927211010160E000000000089
:10410C000000000000000000000000E018040200A5
:10411C00000000071820400000020418E000000016
:10412C000040201807000000404080F08040400014
:10413C000202010F01020200000000F0000000006A
:10414C000101011F0101010000000000000000003E
:10415C0080B07000000000000000000000000000B3
:10416C00000101010101010100000000000000003C
:10417C0000303000000000000000000080601804D7
:10418C00006018060100000000E010080810E000B4
:10419C00000F102020100F00001010F8000000007D
:1041AC000020203F202000000070080808887000C4
:1041BC000030282422213000003008888848300044
:1041CC000018202020110E000000C02010F8000064
:1041DC0000070424243F240000F8088888080800FD
:1041EC000019212020110E0000E010888818000012
:1041FC00000F112020110E0000380808C8380800E4
:10420C000000003F00000000007088080888700063
:10421C00001C222121221C0000E010080810E000E4
:10422C000000312222110F00000000C0C00000006D
:10423C000000003030000000000000800000000092
:10424C00000080600000000000008040201008008A
:10425C000001020408102000404040404040400053
:10426C00040404040404040000081020408000002E
:10427C000020100804020100007048080808F00033
:10428C000000003036010000C030C828E810E00003
:10429C000718272423140B000000C038E00000008E
:1042AC00203C23020227382008F8888888700000F8
:1042BC00203F202020110E00C030080808083800CC
:1042CC00071820202010080008F808080810E00043
:1042DC00203F202020100F0008F88888E8081000E4
:1042EC00203F20202320180008F88888E8081000B8
:1042FC00203F200003000000C030080808380000F0
:10430C0007182020221E020008F808000008F808F0
:10431C00203F210101213F20000808F80808000077
:10432C000020203F2020000000000808F8080800AA
:10433C00C08080807F00000008F888C02818080022
:10434C00203F20012638200008F80800000000005B
:10435C00203F20202020300008F8F800F8F8080052
:10436C00203F003F003F200008F830C00008F8084C
:10437C00203F200007183F00E01008080810E0005C
:10438C000F10202020100F0008F808080808F00073
:10439C00203F210101010000E01008080810E00096
:1043AC000F18242438504F0008F88888888870002B
:1043BC00203F2000030C30200070880808083800CB
:1043CC000038202121221C00180808F808081800C1
:1043DC000000203F2000000008F808000008F80842
:1043EC00001F202020201F000878880000C83808F3
:1043FC00000007380E010000F80800F80008F8006B
:10440C00033C0700073C0300081868808068180804
:10441C0020302C03032C30200838C800C838080082
:10442C000000203F2000000010080808C8380800D1
:10443C002038262120201800000000FE0202020075
:10444C000000007F40404000000C30C00000000025
:10445C00000000010638C00000020202FE0000004D
:10446C00004040407F0000000000040202020400F3
:10447C000000000000000000000000000000000030
:10448C008080808080808080000202040000000018
:10449C000000000000000000000080808080000010
:1044AC000019242222223F2008F8008080000000FE
:1044BC00003F112020110E000000008080800000C1
:1044CC00000E112020201100000000808088F800D0
:1044DC00000E112020103F20000080808080000002
:1044EC00001F222222221300008080F08888881866
:1044FC000020203F20200000000080808080800071
:10450C00006B94949493600008F800808080000005
:10451C00203F210000203F200080989800000000E0
:10452C000020203F20200000000000809898000010
:10453C0000C08080807F000008F800008080800030
:10454C00203F24022D302000000808F80000000055
:10455C000020203F20200000808080808080800010
:10456C00203F20003F20003F8080008080800000A2
:10457C00203F210000203F20000080808080000030
:10458C00001F202020201F00808000808000000061
:10459C0080FFA12020110E00000000808080800090
:1045AC00000E112020A0FF80808080008080800081
:1045BC0020203F21200001000000808080808000AE
:1045CC000033242424241900008080E08080000023
:1045DC000000001F20200000808000000080800070
:1045EC00001F202020103F208080800000808080D1
:1045FC0000010E3008060100808000800080808061
:10460C000F300C030C300F00008080008080800085
:10461C000020312E0E3120008080800000808080B0
:10462C0080818E7018060100008080808080800060
:10463C000021302C2221300000000000807C02027E
:10464C0000000000003F404000000000FF000000A0
:10465C0000000000FF0000000002027C800000004F
:10466C000040403F0000000000060101020204046B
:10467C0000000000000000002532642E253032645A
:10468C00560000002575252500232D302B200068B1
:10469C006C4C006566674546470030313233343523
:1046AC003637383941424344454600303132333491
:0C46BC003536373839616263646566008A
:0446C800F8B500BF82
:0446CC00F8B500BF7E
:1046D000080000000000004132000000020406084B
:1046E0000000000001020304010203040607080998
:1046F00000A24A0428000020000000000000000082
:1047000000000000000000000000000000000000A9
:104710000000000000000000000000000000000099
:104720000000000000000000000000000000000089
:104730000000000000000000000000000000000079
:104740000000000000000000000000000000000069
:08475000000000000000000061
:040000050800010CE2
:00000001FF
